{
  "contractName": "Auction",
  "abi": [
    {
      "inputs": [],
      "stateMutability": "payable",
      "type": "constructor",
      "payable": true
    },
    {
      "inputs": [],
      "name": "highestBid",
      "outputs": [
        {
          "internalType": "uint256",
          "name": "",
          "type": "uint256"
        }
      ],
      "stateMutability": "view",
      "type": "function",
      "constant": true
    },
    {
      "inputs": [],
      "name": "highestBidder",
      "outputs": [
        {
          "internalType": "address",
          "name": "",
          "type": "address"
        }
      ],
      "stateMutability": "view",
      "type": "function",
      "constant": true
    },
    {
      "inputs": [],
      "name": "owner",
      "outputs": [
        {
          "internalType": "address",
          "name": "",
          "type": "address"
        }
      ],
      "stateMutability": "view",
      "type": "function",
      "constant": true
    },
    {
      "inputs": [
        {
          "internalType": "address",
          "name": "",
          "type": "address"
        }
      ],
      "name": "userBalances",
      "outputs": [
        {
          "internalType": "uint256",
          "name": "",
          "type": "uint256"
        }
      ],
      "stateMutability": "view",
      "type": "function",
      "constant": true
    },
    {
      "stateMutability": "payable",
      "type": "receive",
      "payable": true
    },
    {
      "inputs": [],
      "name": "bid",
      "outputs": [],
      "stateMutability": "payable",
      "type": "function",
      "payable": true
    },
    {
      "inputs": [],
      "name": "withdraw",
      "outputs": [],
      "stateMutability": "payable",
      "type": "function",
      "payable": true
    }
  ],
  "bytecode": "0x608060405233600160006101000a81548173ffffffffffffffffffffffffffffffffffffffff021916908373ffffffffffffffffffffffffffffffffffffffff160217905550600160009054906101000a900473ffffffffffffffffffffffffffffffffffffffff166000806101000a81548173ffffffffffffffffffffffffffffffffffffffff021916908373ffffffffffffffffffffffffffffffffffffffff16021790555060006002819055506107fc806100be6000396000f3fe6080604052600436106100595760003560e01c80631998aeef1461006557806326224c641461006f5780633ccfd60b146100ac5780638da5cb5b146100b657806391f90157146100e1578063d57bde791461010c57610060565b3661006057005b600080fd5b61006d610137565b005b34801561007b57600080fd5b50610096600480360381019061009191906104e9565b610299565b6040516100a39190610657565b60405180910390f35b6100b46102b1565b005b3480156100c257600080fd5b506100cb610484565b6040516100d891906105bc565b60405180910390f35b3480156100ed57600080fd5b506100f66104aa565b60405161010391906105bc565b60405180910390f35b34801561011857600080fd5b506101216104ce565b60405161012e9190610657565b60405180910390f35b600160009054906101000a900473ffffffffffffffffffffffffffffffffffffffff1673ffffffffffffffffffffffffffffffffffffffff163373ffffffffffffffffffffffffffffffffffffffff1614156101c8576040517f08c379a00000000000000000000000000000000000000000000000000000000081526004016101bf906105f7565b60405180910390fd5b600254341161020c576040517f08c379a0000000000000000000000000000000000000000000000000000000008152600401610203906105d7565b60405180910390fd5b34600281905550336000806101000a81548173ffffffffffffffffffffffffffffffffffffffff021916908373ffffffffffffffffffffffffffffffffffffffff16021790555034600360003373ffffffffffffffffffffffffffffffffffffffff1673ffffffffffffffffffffffffffffffffffffffff16815260200190815260200160002081905550565b60036020528060005260406000206000915090505481565b6000600360003373ffffffffffffffffffffffffffffffffffffffff1673ffffffffffffffffffffffffffffffffffffffff1681526020019081526020016000205411610333576040517f08c379a000000000000000000000000000000000000000000000000000000000815260040161032a90610617565b60405180910390fd5b600254600360003373ffffffffffffffffffffffffffffffffffffffff1673ffffffffffffffffffffffffffffffffffffffff1681526020019081526020016000205414156103b7576040517f08c379a00000000000000000000000000000000000000000000000000000000081526004016103ae90610637565b60405180910390fd5b3373ffffffffffffffffffffffffffffffffffffffff166108fc600360003373ffffffffffffffffffffffffffffffffffffffff1673ffffffffffffffffffffffffffffffffffffffff168152602001908152602001600020549081150290604051600060405180830381858888f1935050505015801561043c573d6000803e3d6000fd5b506000600360003373ffffffffffffffffffffffffffffffffffffffff1673ffffffffffffffffffffffffffffffffffffffff16815260200190815260200160002081905550565b600160009054906101000a900473ffffffffffffffffffffffffffffffffffffffff1681565b60008054906101000a900473ffffffffffffffffffffffffffffffffffffffff1681565b60025481565b6000813590506104e3816107af565b92915050565b6000602082840312156104fb57600080fd5b6000610509848285016104d4565b91505092915050565b61051b81610683565b82525050565b600061052e602d83610672565b9150610539826106bf565b604082019050919050565b6000610551601783610672565b915061055c8261070e565b602082019050919050565b6000610574601d83610672565b915061057f82610737565b602082019050919050565b6000610597602a83610672565b91506105a282610760565b604082019050919050565b6105b6816106b5565b82525050565b60006020820190506105d16000830184610512565b92915050565b600060208201905081810360008301526105f081610521565b9050919050565b6000602082019050818103600083015261061081610544565b9050919050565b6000602082019050818103600083015261063081610567565b9050919050565b600060208201905081810360008301526106508161058a565b9050919050565b600060208201905061066c60008301846105ad565b92915050565b600082825260208201905092915050565b600061068e82610695565b9050919050565b600073ffffffffffffffffffffffffffffffffffffffff82169050919050565b6000819050919050565b7f54686520626964206973206c657373207468616e207468652063757272656e7460008201527f2068696768657374206269642100000000000000000000000000000000000000602082015250565b7f4f776e65722063616e27742073656e6420612062696421000000000000000000600082015250565b7f54686520616d6f756e7420746f2072657475726e206973207a65726f21000000600082015250565b7f54686520686967686573744269646465722063616e27742074616b652062616360008201527f6b20686973206269642100000000000000000000000000000000000000000000602082015250565b6107b881610683565b81146107c357600080fd5b5056fea26469706673582212209b019596d888ed671a677ba417eca4c305b0fe2bcceacb62b1006b8d423e678164736f6c63430008030033",
  "immutableReferences": {},
  "source": "// SPDX-License-Identifier: GPL-3.0\n\npragma solidity >=0.7.0 <0.9.0;\n\ncontract Auction {\n    address public highestBidder; // The highest bidder's address\n    address public owner;\n    uint public highestBid; // The amount of the highest bid\n    mapping(address => uint) public userBalances; // mapping for the amount to return\n    \n    constructor() payable{\n        owner = msg.sender;\n        highestBidder = owner;\n        highestBid = 0;\n    }\n\n    function bid() public payable{\n        require(msg.sender != owner, \"Owner can't send a bid!\");\n        require(msg.value > highestBid, \"The bid is less than the current highest bid!\");\n        highestBid = msg.value;\n        highestBidder = msg.sender;\n        userBalances[msg.sender] = msg.value;\n    }\n\n    function withdraw() public payable{\n        require(userBalances[msg.sender] > 0, \"The amount to return is zero!\");\n        require(userBalances[msg.sender]!=highestBid, \"The highestBidder can't take back his bid!\");\n        payable(msg.sender).transfer(userBalances[msg.sender]);\n        userBalances[msg.sender] = 0;\n    }\n    \n    receive() external payable{}\n}\n",
  "sourcePath": "/home/ikarampinis/auctionApp/contracts/Auction.sol",
  "compiler": {
    "name": "solc",
    "version": "0.8.3+commit.8d00100c.Emscripten.clang"
  },
  "schemaVersion": "3.4.0",
  "updatedAt": "2021-05-22T17:08:22.871Z",
  "networkType": "ethereum",
  "devdoc": {
    "kind": "dev",
    "methods": {},
    "version": 1
  },
  "userdoc": {
    "kind": "user",
    "methods": {},
    "version": 1
  }
}